:100000000C9434020C9451020C9451020C94510241
:100010000C9451020C9451020C9451020C94510214
:100020000C9451020C9451020C9451020C94510204
:100030000C9451020C9451020C9451020C945102F4
:100040000C9451020C9451020C9451020C945102E4
:100050000C9451020C9451020C9451020C945102D4
:100060000C9451020C94510200000000B71DC10411
:100070006E3B8209D926430DDC7604136B6BC517E2
:10008000B24D861A0550471EB8ED08260FF0C9225A
:10009000D6D68A2F61CB4B2B649B0C35D386CD31C2
:1000A0000AA08E3CBDBD4F3870DB114CC7C6D0488E
:1000B0001EE09345A9FD5241ACAD155F1BB0D45B6A
:1000C000C2969756758B5652C836196A7F2BD86ED2
:1000D000A60D9B6311105A6714401D79A35DDC7D4A
:1000E0007A7B9F70CD665E74E0B6239857ABE29C36
:1000F0008E8DA191399060953CC0278B8BDDE68F6A
:1001000052FBA582E5E66486585B2BBEEF46EABA51
:100110003660A9B7817D68B3842D2FAD3330EEA949
:10012000EA16ADA45D0B6CA0906D32D42770F3D0AD
:10013000FE56B0DD494B71D94C1B36C7FB06F7C3E1
:100140002220B4CE953D75CA28803AF29F9DFBF6D9
:1001500046BBB8FBF1A679FFF4F63EE143EBFFE5C1
:100160009ACDBCE82DD07DEC77708634C06D4730D9
:10017000194B043DAE56C539AB0682271C1B4323E1
:10018000C53D002E7220C12ACF9D8E1278804F1659
:10019000A1A60C1B16BBCD1F13EB8A01A4F64B05C1
:1001A0007DD00808CACDC90C07AB9778B0B6567C8D
:1001B00069901571DE8DD475DBDD936B6CC0526F69
:1001C000B5E6116202FBD066BF469F5E085B5E5AD1
:1001D000D17D1D576660DC5363309B4DD42D5A4949
:1001E0000D0B1944BA16D84097C6A5AC20DB64A8FD
:1001F000F9FD27A54EE0E6A14BB0A1BFFCAD60BB69
:10020000258B23B69296E2B22F2BAD8A98366C8E50
:1002100041102F83F60DEE87F35DA9994440689D48
:100220009D662B902A7BEA94E71DB4E0500075E4AC
:10023000892636E93E3BF7ED3B6BB0F38C7671F7E0
:10024000555032FAE24DF3FE5FF0BCC6E8ED7DC2D8
:1002500031CB3ECF86D6FFCB8386B8D5349B79D1C0
:10026000EDBD3ADC5AA0FBD8EEE00C6959FDCD6D2E
:1002700080DB8E6037C64F643296087A858BC97EE4
:100280005CAD8A73EBB04B77560D044FE110C54B54
:10029000383686468F2B47428A7B005C3D66C158C4
:1002A000E4408255535D43519E3B1D252926DC21A8
:1002B000F0009F2C471D5E28424D1936F550D8326C
:1002C0002C769B3F9B6B5A3B26D6150391CBD407CC
:1002D00048ED970AFFF0560EFAA011104DBDD0144C
:1002E000949B93192386521D0E562FF1B94BEEF5B0
:1002F000606DADF8D7706CFCD2202BE2653DEAE66C
:10030000BC1BA9EB0B0668EFB6BB27D701A6E6D34B
:10031000D880A5DE6F9D64DA6ACD23C4DDD0E2C04B
:1003200004F6A1CDB3EB60C97E8D3EBDC990FFB987
:1003300010B6BCB4A7AB7DB0A2FB3AAE15E6FBAAE3
:10034000CCC0B8A77BDD79A3C660369B717DF79FD3
:10035000A85BB4921F4675961A163288AD0BF38CC3
:10036000742DB081C330718599908A5D2E8D4B5963
:10037000F7AB085440B6C95045E68E4EF2FB4F4AE3
:100380002BDD0C479CC0CD43217D827B9660437F53
:100390004F460072F85BC176FD0B86684A16476CC3
:1003A00093300461242DC565E94B9B115E565A15A7
:1003B00087701918306DD81C353D9F0282205E066B
:1003C0005B061D0BEC1BDC0F51A69337E6BB5233CB
:1003D0003F9D113E8880D03A8DD097243ACD56204B
:1003E000E3EB152D54F6D4297926A9C5CE3B68C177
:1003F000171D2BCCA000EAC8A550ADD6124D6CD26B
:10040000CB6B2FDF7C76EEDBC1CBA1E376D660E74A
:10041000AFF023EA18EDE2EE1DBDA5F0AAA064F44A
:10042000738627F9C49BE6FD09FDB889BEE0798D86
:1004300067C63A80D0DBFB84D58BBC9A62967D9EE2
:10044000BBB03E930CADFF97B110B0AF060D71ABD2
:10045000DF2B32A66836F3A26D66B4BCDA7B75B8C2
:10046000035D36B5B440F7B111241FBECFEFD8E01D
:10047000DEBFCDBF15E0A0E0B1E0ECE9FCE002C0DA
:1004800005900D92AA30B107D9F717E0AAE0B5E0C0
:1004900001C01D92A231B107E1F70E9453020C94F2
:1004A0004C060C9400002F923F924F925F926F92F5
:1004B0007F928F929F92AF92BF92CF92DF92EF92F4
:1004C000FF920F931F93DF93CF9300D000D0CDB74F
:1004D000DEB70E944804892B09F0BFC10F2EF6E356
:1004E000CF2EDD24F02D0F2EF4E8AF2EBB24F02DFF
:1004F0000F2EF9ED8F2EFFEF9F2EF02D0F2EFBE22A
:100500006F2E7724F02D222433242101D201C10142
:1005100029829A83AB83BC8320910A0530910B0515
:1005200040910C0550910D05F601808180FF0BC0B4
:100530009AC1F30180818058808389819A81AB813F
:10054000BC819C01AD01E0ECF0E08081882364F780
:1005500020930A0530930B0540930C0550930D052D
:1005600080910E0790910F07A0911007B09111078D
:10057000E6ECF0E02081EEE0F5E0E80FF91F2083E3
:100580000196A11DB11D80930E0790930F07A093B4
:100590001007B093110780509240A040B04009F07E
:1005A000BBCF6FEF7FEF8FEF9FEF40E051E029E08F
:1005B00030E00E9407067B018C01892F9927AA272A
:1005C000BB270E94AA04C801AA27BB270E94AA042D
:1005D000BB27A12F902F8F2D0E94AA048E2D0E9441
:1005E000AA04E5E2F0E08081816080836FEF7FEF15
:1005F0008FEF9FEF4EE055E020E032E00E940706CB
:100600007B018C01E5E2F0E080818E7F8083812F89
:100610009927AA27BB270E94AA04C801AA27BB279B
:100620000E94AA04BB27A12F902F8F2D0E94AA04FD
:100630008E2D0E94AA0480ED97E00197F1F78FEFCD
:100640000E94AA046FEF7FEF8FEF9FEF40E051E031
:1006500029E030E00E94B6047B018C01892F9927A4
:10066000AA27BB270E94AA04C801AA27BB270E9469
:10067000AA04BB27A12F902F8F2D0E94AA048E2D94
:100680000E94AA04E5E2F0E08081816080836FEF40
:100690007FEF8FEF9FEF4EE055E020E032E00E94C9
:1006A000B6047B018C01E5E2F0E080818E7F8083DF
:1006B000812F9927AA27BB270E94AA04C801AA272D
:1006C000BB270E94AA04BB27A12F902F8F2D0E9429
:1006D000AA048E2D0E94AA0480ED97E00197F1F7FD
:1006E0008FEF0E94AA0469E474E68FEA96E440E082
:1006F00051E029E030E00E94FB040E946E057B017E
:100700008C01892F9927AA27BB270E94AA04C80118
:10071000AA27BB270E94AA04BB27A12F902F8F2DA9
:100720000E94AA048E2D0E94AA04E5E2F0E08081D6
:100730008160808369E474E68FEA96E44EE055E0D8
:1007400020E032E00E94FB040E946E057B018C01D8
:10075000E5E2F0E080818E7F8083812F9927AA27B0
:10076000BB270E94AA04C801AA27BB270E94AA048B
:10077000BB27A12F902F8F2D0E94AA048E2D0E949F
:10078000AA04E0ECF0E0808186FFFBCF8FEFE6EC7F
:10079000F0E0808380ED97E00197F1F78FEF0E9402
:1007A000AA046FEF7FEF8FEF9FEF40E051E029E069
:1007B00030E00E949A057B018C01892F9927AA2796
:1007C000BB270E94AA04C801AA27BB270E94AA042B
:1007D000BB27A12F902F8F2D0E94AA048E2D0E943F
:1007E000AA04E5E2F0E08081816080836FEF7FEF13
:1007F0008FEF9FEF4EE055E020E032E00E949A0537
:100800007B018C01E5E2F0E080818E7F8083812F87
:100810009927AA27BB270E94AA04C801AA27BB2799
:100820000E94AA04BB27A12F902F8F2D0E94AA04FB
:100830008E2D0E94AA04E0ECF0E0808186FFFBCFC1
:100840008FEFE6ECF0E0808320920E0730920F07E6
:1008500040921007509211075FCEEBE2F0E08081EA
:1008600080688083FFCFF601808181608083F501FD
:10087000918280822F5F3F4F4F4F5F4F2039F1E0D1
:100880003F07F0E04F07F0E05F0709F05CCE51CE84
:10089000EAE2F0E0808180688083EBE2F0E0808132
:1008A0008F778083E4E2F0E0808181608083E5E2FD
:1008B000F0E080818E7F808310926400109280002F
:1008C0001092820089ED9FEF9093850080938400C1
:1008D00010926F008CE090E09093C5008093C4006C
:1008E0001092C00088E18093C10086E08093C2002E
:1008F00085EA8093C600E0ECF0E0808186FFFDCFC2
:100900008AE58093C600E0ECF0E0808186FFFDCFB1
:100910008CE08093C600E0ECF0E0808186FFFDCFA4
:10092000EBE2F0E080818068808320E137E248ECF0
:1009300050E0CA010197F1F721503040D1F7EBE2C6
:10094000F0E080818F77808384E08093810080E075
:1009500090E008958093C600E0ECF0E0808186FF8F
:10096000FDCF84EF91E00197F1F70895CF92DF92E8
:10097000EF92FF920F931F93CF93DF937B018C0134
:10098000B9012115310551F1242F352FE9010F2E21
:10099000FAE0CF2EF1E0DF2EF02D212F3327442770
:1009A0005527899190E0822793279070880F991F8F
:1009B000880F991FF601E80FF91F208131814281CC
:1009C0005381B02FAF2D9E2D882779018A01E8260B
:1009D000F9260A271B2761507040F9F66E2D7F2DEE
:1009E000802F912FDF91CF911F910F91FF90EF906A
:1009F000DF90CF9008952F923F924F925F926F9227
:100A00007F928F929F92AF92BF92CF92DF92EF929E
:100A1000FF920F931F93CF93DF935B016C0149010A
:100A2000842F952FEC010F2EF7E02F2E3324F02D7D
:100A30000F2EF7EB4F2EFDE15F2EF1EC6F2EF4E061
:100A40007F2EF02D31C08881B101E82FF0E08601C2
:100A50007501A6019501220F331F441F551FCF01B9
:100A6000062E02C0959587950A94E2F7AA2797FD6E
:100A7000A095BA2F81709070A070B0705C016D016C
:100A8000A22AB32AC42AD52A112324F4A424B524E3
:100A9000C624D724615070408FEF6F3F7807B9F6B6
:100AA00021960894810891088114910461F66A2DB9
:100AB0007B2D8C2D9D2DDF91CF911F910F91FF905C
:100AC000EF90DF90CF90BF90AF909F908F907F90EE
:100AD0006F905F904F903F902F900895EF92FF920C
:100AE0000F931F939B01AC0160E070E00F2EF7EBBA
:100AF000EF2EFDE1FF2EF1EC0F2FF4E01F2FF02D74
:100B0000DA01C901220F331F441F551FBB2324F4F0
:100B10002E253F25402751276F5F7F4F603271059B
:100B200079F7622F732F842F952F1F910F91FF90CC
:100B3000EF9008954F925F926F927F928F929F9263
:100B4000AF92BF92CF92DF92EF92FF920F931F93DB
:100B5000CF93DF937B018C016901842F952FEC01EA
:100B600044245524689447F86624772431E00F2EF6
:100B7000F7EB8F2EFDE19F2EF1ECAF2EF4E0BF2EB0
:100B8000F02D2DC08881B201A301E82FF0E0E1141F
:100B9000F10401051105D801C7018827B7FD839528
:100BA0009927AA27BB27282FCB018E239F23892B88
:100BB00009F02327EE0CFF1C001F111F222321F038
:100BC000E824F9240A251B25769567954F5F5F4F2A
:100BD00048305105E1F621960894C108D108C114A6
:100BE000D10481F66E2D7F2D802F912FDF91CF9133
:100BF0001F910F91FF90EF90DF90CF90BF90AF903B
:100C00009F908F907F906F905F904F900895CF92BC
:100C1000DF92EF92FF920F931F93CF93DF937B01AD
:100C20008C01B9012115310551F1242F352FE9012E
:100C30000F2EF8E6CF2EF0E0DF2EF02D212F3327F8
:100C400044275527899190E0822793279070880F39
:100C5000991F880F991FF601E80FF91F259135910B
:100C600045915491B02FAF2D9E2D88277C018D0189
:100C7000E226F3260427152761507040F9F66E2D01
:100C80007F2D802F912FDF91CF911F910F91FF909A
:0C0C9000EF90DF90CF900895F894FFCF14
:100C9C003132333435363738390000000000B71D97
:100CAC00C1046E3B8209D926430DDC7604136B6BB1
:100CBC00C517B24D861A0550471EB8ED08260FF021
:100CCC00C922D6D68A2F61CB4B2B649B0C35D3868D
:100CDC00CD310AA08E3CBDBD4F3870DB114CC7C660
:100CEC00D0481EE09345A9FD5241ACAD155F1BB039
:100CFC00D45BC2969756758B5652C836196A7F2BA1
:100D0C00D86EA60D9B6311105A6714401D79A35D14
:100D1C00DC7D7A7B9F70CD665E74E0B6239857AB12
:100D2C00E29C8E8DA191399060953CC0278B8BDD18
:100D3C00E68F52FBA582E5E66486585B2BBEEF4638
:100D4C00EABA3660A9B7817D68B3842D2FAD3330F4
:100D5C00EEA9EA16ADA45D0B6CA0906D32D4277091
:100D6C00F3D0FE56B0DD494B71D94C1B36C7FB0690
:100D7C00F7C32220B4CE953D75CA28803AF29F9DC8
:100D8C00FBF646BBB8FBF1A679FFF4F63EE143EB6C
:100D9C00FFE59ACDBCE82DD07DEC77708634C06D24
:100DAC004730194B043DAE56C539AB0682271C1B88
:100DBC004323C53D002E7220C12ACF9D8E12788010
:100DCC004F16A1A60C1B16BBCD1F13EB8A01A4F664
:100DDC004B057DD00808CACDC90C07AB9778B0B6C7
:100DEC00567C69901571DE8DD475DBDD936B6CC010
:100DFC00526FB5E6116202FBD066BF469F5E085B80
:100E0C005E5AD17D1D576660DC5363309B4DD42DEB
:100E1C005A490D0B1944BA16D84097C6A5AC20DB1D
:100E2C0064A8F9FD27A54EE0E6A14BB0A1BFFCAD2F
:100E3C0060BB258B23B69296E2B22F2BAD8A9836E7
:100E4C006C8E41102F83F60DEE87F35DA99944400B
:100E5C00689D9D662B902A7BEA94E71DB4E05000B8
:100E6C0075E4892636E93E3BF7ED3B6BB0F38C76A7
:100E7C0071F7555032FAE24DF3FE5FF0BCC6E8ED67
:100E8C007DC231CB3ECF86D6FFCB8386B8D5349B83
:100E9C0079D1EDBD3ADC5AA0FBD8EEE00C6959FDD6
:100EAC00CD6D80DB8E6037C64F643296087A858BA9
:100EBC00C97E5CAD8A73EBB04B77560D044FE110D5
:100ECC00C54B383686468F2B47428A7B005C3D6685
:100EDC00C158E4408255535D43519E3B1D25292644
:100EEC00DC21F0009F2C471D5E28424D1936F55031
:100EFC00D8322C769B3F9B6B5A3B26D6150391CB55
:100F0C00D40748ED970AFFF0560EFAA011104DBD0C
:100F1C00D014949B93192386521D0E562FF1B94B66
:100F2C00EEF5606DADF8D7706CFCD2202BE2653D10
:100F3C00EAE6BC1BA9EB0B0668EFB6BB27D701A6EC
:100F4C00E6D3D880A5DE6F9D64DA6ACD23C4DDD0EC
:100F5C00E2C004F6A1CDB3EB60C97E8D3EBDC99055
:100F6C00FFB910B6BCB4A7AB7DB0A2FB3AAE15E688
:100F7C00FBAACCC0B8A77BDD79A3C660369B717D7C
:100F8C00F79FA85BB4921F4675961A163288AD0B64
:100F9C00F38C742DB081C330718599908A5D2E8D40
:100FAC004B59F7AB085440B6C95045E68E4EF2FB90
:100FBC004F4A2BDD0C479CC0CD43217D827B966034
:100FCC00437F4F460072F85BC176FD0B86684A166C
:100FDC00476C93300461242DC565E94B9B115E561B
:100FEC005A1587701918306DD81C353D9F02822018
:100FFC005E065B061D0BEC1BDC0F51A69337E6BBA4
:10100C0052333F9D113E8880D03A8DD097243ACDF3
:10101C005620E3EB152D54F6D4297926A9C5CE3BE1
:10102C0068C1171D2BCCA000EAC8A550ADD6124D37
:10103C006CD2CB6B2FDF7C76EEDBC1CBA1E376D60B
:10104C0060E7AFF023EA18EDE2EE1DBDA5F0AAA013
:10105C0064F4738627F9C49BE6FD09FDB889BEE0EC
:10106C00798D67C63A80D0DBFB84D58BBC9A6296AF
:10107C007D9EBBB03E930CADFF97B110B0AF060D8B
:10108C0071ABDF2B32A66836F3A26D66B4BCDA7B8B
:0A109C0075B8035D36B5B440F7B136
:00000001FF
