:100000000C9434020C9451020C9451020C94510241
:100010000C9451020C9451020C9451020C94510214
:100020000C9451020C9451020C9451020C94510204
:100030000C9451020C9451020C9451020C945102F4
:100040000C9451020C9451020C9451020C945102E4
:100050000C9451020C9451020C9451020C945102D4
:100060000C9451020C94510200000000B71DC10411
:100070006E3B8209D926430DDC7604136B6BC517E2
:10008000B24D861A0550471EB8ED08260FF0C9225A
:10009000D6D68A2F61CB4B2B649B0C35D386CD31C2
:1000A0000AA08E3CBDBD4F3870DB114CC7C6D0488E
:1000B0001EE09345A9FD5241ACAD155F1BB0D45B6A
:1000C000C2969756758B5652C836196A7F2BD86ED2
:1000D000A60D9B6311105A6714401D79A35DDC7D4A
:1000E0007A7B9F70CD665E74E0B6239857ABE29C36
:1000F0008E8DA191399060953CC0278B8BDDE68F6A
:1001000052FBA582E5E66486585B2BBEEF46EABA51
:100110003660A9B7817D68B3842D2FAD3330EEA949
:10012000EA16ADA45D0B6CA0906D32D42770F3D0AD
:10013000FE56B0DD494B71D94C1B36C7FB06F7C3E1
:100140002220B4CE953D75CA28803AF29F9DFBF6D9
:1001500046BBB8FBF1A679FFF4F63EE143EBFFE5C1
:100160009ACDBCE82DD07DEC77708634C06D4730D9
:10017000194B043DAE56C539AB0682271C1B4323E1
:10018000C53D002E7220C12ACF9D8E1278804F1659
:10019000A1A60C1B16BBCD1F13EB8A01A4F64B05C1
:1001A0007DD00808CACDC90C07AB9778B0B6567C8D
:1001B00069901571DE8DD475DBDD936B6CC0526F69
:1001C000B5E6116202FBD066BF469F5E085B5E5AD1
:1001D000D17D1D576660DC5363309B4DD42D5A4949
:1001E0000D0B1944BA16D84097C6A5AC20DB64A8FD
:1001F000F9FD27A54EE0E6A14BB0A1BFFCAD60BB69
:10020000258B23B69296E2B22F2BAD8A98366C8E50
:1002100041102F83F60DEE87F35DA9994440689D48
:100220009D662B902A7BEA94E71DB4E0500075E4AC
:10023000892636E93E3BF7ED3B6BB0F38C7671F7E0
:10024000555032FAE24DF3FE5FF0BCC6E8ED7DC2D8
:1002500031CB3ECF86D6FFCB8386B8D5349B79D1C0
:10026000EDBD3ADC5AA0FBD8EEE00C6959FDCD6D2E
:1002700080DB8E6037C64F643296087A858BC97EE4
:100280005CAD8A73EBB04B77560D044FE110C54B54
:10029000383686468F2B47428A7B005C3D66C158C4
:1002A000E4408255535D43519E3B1D252926DC21A8
:1002B000F0009F2C471D5E28424D1936F550D8326C
:1002C0002C769B3F9B6B5A3B26D6150391CBD407CC
:1002D00048ED970AFFF0560EFAA011104DBDD0144C
:1002E000949B93192386521D0E562FF1B94BEEF5B0
:1002F000606DADF8D7706CFCD2202BE2653DEAE66C
:10030000BC1BA9EB0B0668EFB6BB27D701A6E6D34B
:10031000D880A5DE6F9D64DA6ACD23C4DDD0E2C04B
:1003200004F6A1CDB3EB60C97E8D3EBDC990FFB987
:1003300010B6BCB4A7AB7DB0A2FB3AAE15E6FBAAE3
:10034000CCC0B8A77BDD79A3C660369B717DF79FD3
:10035000A85BB4921F4675961A163288AD0BF38CC3
:10036000742DB081C330718599908A5D2E8D4B5963
:10037000F7AB085440B6C95045E68E4EF2FB4F4AE3
:100380002BDD0C479CC0CD43217D827B9660437F53
:100390004F460072F85BC176FD0B86684A16476CC3
:1003A00093300461242DC565E94B9B115E565A15A7
:1003B00087701918306DD81C353D9F0282205E066B
:1003C0005B061D0BEC1BDC0F51A69337E6BB5233CB
:1003D0003F9D113E8880D03A8DD097243ACD56204B
:1003E000E3EB152D54F6D4297926A9C5CE3B68C177
:1003F000171D2BCCA000EAC8A550ADD6124D6CD26B
:10040000CB6B2FDF7C76EEDBC1CBA1E376D660E74A
:10041000AFF023EA18EDE2EE1DBDA5F0AAA064F44A
:10042000738627F9C49BE6FD09FDB889BEE0798D86
:1004300067C63A80D0DBFB84D58BBC9A62967D9EE2
:10044000BBB03E930CADFF97B110B0AF060D71ABD2
:10045000DF2B32A66836F3A26D66B4BCDA7B75B8C2
:10046000035D36B5B440F7B111241FBECFEFD8E01D
:10047000DEBFCDBF15E0A0E0B1E0ECE3F9E002C0E3
:1004800005900D92A030B107D9F717E0A0E0B5E0D4
:1004900001C01D92A830B107E1F70E9453020C94ED
:1004A0009C040C9400004F925F926F927F928F9207
:1004B0009F92AF92BF92CF92DF92EF92FF920F93F3
:1004C0001F93CF93DF930E944E03892B09F0CCC07A
:1004D000C6E3D0E00F2EF4E88F2E9924F02D0F2ED6
:1004E000F9ED6F2EFFEF7F2EF02D0F2EFBE24F2E3A
:1004F0005524F02D00EC10E00F2EF6ECEF2EFF242B
:10050000F02D0F2EF4E0CF2EF5E0DF2EF02D0F2E84
:10051000F8E1AF2EBB24F02D2091000530910105AC
:100520004091020550910305888180FF09C0A2C057
:10053000F20180818058808320E030E040E050E08C
:10054000F8018081882384F720930005309301050A
:10055000409302055093030580910407909105078D
:10056000A0910607B0910707F7012081F601E80F77
:10057000F91F20830196A11DB11D8093040790935C
:100580000507A0930607B093070780509240A0404C
:10059000B04009F0C1CF6FEF7FEF8FEF9FEFA60163
:1005A00020E032E00E94A603AB01BC019501DB0113
:1005B000CA01022E04C0B695A795979587950A940F
:1005C000D2F7F7018083F801808186FFFCCF2850A5
:1005D0003040FFEF283F3F0751F76FEF7FEF8FEF7E
:1005E0009FEFA60120E032E00E94EC03AB01BC01CA
:1005F0009501DB01CA01022E04C0B695A795979517
:1006000087950A94D2F7F7018083F801808186FFED
:10061000FCCF28503040FFEF283F3F0751F76FEFE6
:100620007FEF8FEF9FEFA60120E032E00E943104C0
:100630000E948204AB01BC019501DB01CA01022EBC
:1006400004C0B695A795979587950A94D2F7F701B8
:100650008083F801808186FFFCCF28503040FFEF77
:10066000283F3F0751F758CFEBE2F0E080818068E8
:100670008083FFCF888181608883F40171826082EA
:100680002F5F3F4F4F4F5F4F2039F1E03F07F0E0C2
:100690004F07F0E05F0709F053CF4ACFEAE2F0E0FE
:1006A000808180688083EBE2F0E080818F778083B7
:1006B00010926400109280001092820089ED9FEFEA
:1006C000909385008093840010926F008CE090E0FE
:1006D0009093C5008093C4001092C00088E180937D
:1006E000C10086E08093C20085EA8093C600E0ECFA
:1006F000F0E0808186FFFDCF8AE58093C600E0ECC4
:10070000F0E0808186FFFDCF85EA8093C600E0ECB3
:10071000F0E0808186FFFDCFEBE2F0E08081806831
:10072000808320E137E248EC50E0CA010197F1F7FD
:1007300021503040D1F7EBE2F0E080818F77808369
:1007400084E08093810080E090E00895CF92DF9272
:10075000EF92FF920F931F93CF93DF937B018C0156
:10076000B9012115310559F1242F352FE9010F2E3B
:10077000F8E6CF2EF0E0DF2EF02D212F332744278F
:100780005527899190E0822793279070880F991FB1
:10079000880F991FF601E80FF91FE491502F4F2D94
:1007A0003E2D22278E2F90E0A0E0B0E079018A0153
:1007B000E826F9260A271B2761507040F1F66E2DB6
:1007C0007F2D802F912FDF91CF911F910F91FF905F
:1007D000EF90DF90CF900895CF92DF92EF92FF924B
:1007E0000F931F93CF93DF937B018C01B9012115E8
:1007F000310551F1242F352FE9010F2EF0E0CF2ED6
:10080000F1E0DF2EF02D212F332744275527899142
:1008100090E0822793279070880F991F880F991F67
:10082000F601E80FF91F2081318142815381B02FF9
:10083000AF2D9E2D882779018A01E826F9260A27FF
:100840001B2761507040F9F66E2D7F2D802F912F60
:10085000DF91CF911F910F91FF90EF90DF90CF909C
:100860000895AF92BF92CF92DF92EF92FF920F93D3
:100870001F93CF93DF937B018C016901842F952F08
:10088000EC010F2EF7E0AF2EBB24F02D29C088819C
:10089000B501E82FF0E0A8019701220F331F441F94
:1008A000551FCF01062E02C0959587950A94E2F751
:1008B000AA2797FDA095BA2F81709070A070B07094
:1008C0007C018D01E22AF32A042B152B6150704024
:1008D0008FEF6F3F7807F9F621960894C108D10889
:1008E000C114D104A1F66E2D7F2D802F912FDF91A1
:1008F000CF911F910F91FF90EF90DF90CF90BF901D
:10090000AF900895EF92FF920F931F937B018C019C
:1009100020E030E0EE0CFF1C001F111F2F5F3F4F47
:1009200020323105B9F76E2D7F2D802F912F1F9129
:0C0930000F91FF90EF900895F894FFCF16
:10093C0000000000B71DC1046E3B8209D926430D8F
:10094C00DC7604136B6BC517B24D861A0550471E27
:10095C00B8ED08260FF0C922D6D68A2F61CB4B2BC7
:10096C00649B0C35D386CD310AA08E3CBDBD4F386F
:10097C0070DB114CC7C6D0481EE09345A9FD52410F
:10098C00ACAD155F1BB0D45BC2969756758B5652A7
:10099C00C836196A7F2BD86EA60D9B6311105A6747
:1009AC0014401D79A35DDC7D7A7B9F70CD665E74EF
:1009BC00E0B6239857ABE29C8E8DA191399060954F
:1009CC003CC0278B8BDDE68F52FBA582E5E6648667
:1009DC00585B2BBEEF46EABA3660A9B7817D68B387
:1009EC00842D2FAD3330EEA9EA16ADA45D0B6CA0AF
:1009FC00906D32D42770F3D0FE56B0DD494B71D9CF
:100A0C004C1B36C7FB06F7C32220B4CE953D75CAE6
:100A1C0028803AF29F9DFBF646BBB8FBF1A679FF06
:100A2C00F4F63EE143EBFFE59ACDBCE82DD07DEC2E
:100A3C0077708634C06D4730194B043DAE56C539BE
:100A4C00AB0682271C1B4323C53D002E7220C12AF6
:100A5C00CF9D8E1278804F16A1A60C1B16BBCD1FF6
:100A6C0013EB8A01A4F64B057DD00808CACDC90C3E
:100A7C0007AB9778B0B6567C69901571DE8DD4753E
:100A8C00DBDD936B6CC0526FB5E6116202FBD06676
:100A9C00BF469F5E085B5E5AD17D1D576660DC5376
:100AAC0063309B4DD42D5A490D0B1944BA16D840BE
:100ABC0097C6A5AC20DB64A8F9FD27A54EE0E6A1FE
:100ACC004BB0A1BFFCAD60BB258B23B69296E2B2B6
:100ADC002F2BAD8A98366C8E41102F83F60DEE8736
:100AEC00F35DA9994440689D9D662B902A7BEA94FE
:100AFC00E71DB4E0500075E4892636E93E3BF7ED7E
:100B0C003B6BB0F38C7671F7555032FAE24DF3FE35
:100B1C005FF0BCC6E8ED7DC231CB3ECF86D6FFCBB5
:100B2C008386B8D5349B79D1EDBD3ADC5AA0FBD87D
:100B3C00EEE00C6959FDCD6D80DB8E6037C64F64DD
:100B4C003296087A858BC97E5CAD8A73EBB04B7795
:100B5C00560D044FE110C54B383686468F2B474255
:100B6C008A7B005C3D66C158E4408255535D43511D
:100B7C009E3B1D252926DC21F0009F2C471D5E285D
:100B8C00424D1936F550D8322C769B3F9B6B5A3B15
:100B9C0026D6150391CBD40748ED970AFFF0560ED5
:100BAC00FAA011104DBDD014949B93192386521D9D
:100BBC000E562FF1B94BEEF5606DADF8D7706CFC9D
:100BCC00D2202BE2653DEAE6BC1BA9EB0B0668EFD5
:100BDC00B6BB27D701A6E6D3D880A5DE6F9D64DA15
:100BEC006ACD23C4DDD0E2C004F6A1CDB3EB60C95D
:100BFC007E8D3EBDC990FFB910B6BCB4A7AB7DB01D
:100C0C00A2FB3AAE15E6FBAACCC0B8A77BDD79A354
:100C1C00C660369B717DF79FA85BB4921F46759694
:100C2C001A163288AD0BF38C742DB081C3307185DC
:100C3C0099908A5D2E8D4B59F7AB085440B6C9502C
:100C4C0045E68E4EF2FB4F4A2BDD0C479CC0CD4344
:100C5C00217D827B9660437F4F460072F85BC176A4
:100C6C00FD0B86684A16476C93300461242DC565CC
:100C7C00E94B9B115E565A1587701918306DD81CAC
:100C8C00353D9F0282205E065B061D0BEC1BDC0FC4
:100C9C0051A69337E6BB52333F9D113E8880D03A24
:100CAC008DD097243ACD5620E3EB152D54F6D4294C
:100CBC007926A9C5CE3B68C1171D2BCCA000EAC86C
:100CCC00A550ADD6124D6CD2CB6B2FDF7C76EEDB04
:100CDC00C1CBA1E376D660E7AFF023EA18EDE2EEE4
:100CEC001DBDA5F0AAA064F4738627F9C49BE6FD8C
:100CFC0009FDB889BEE0798D67C63A80D0DBFB84EC
:100D0C00D58BBC9A62967D9EBBB03E930CADFF9783
:100D1C00B110B0AF060D71ABDF2B32A66836F3A263
:100D2C006D66B4BCDA7B75B8035D36B5B440F7B10B
:00000001FF
